:0609C80001090001080016
:03002B0002096265
:10096200C0E0C0D075D000C006C00753BCDFAFBE28
:10097200750A008F0BE5BD540FFEEE420A750901A0
:0C09820043BC40D007D006D0D0D0E032FB
:1009B100E5925483447CF5925391835392FDE591E2
:0709C10054FD4402F59122F0
:10098E00E5BC54F04401F5BCE5DE54F0440FF5DE51
:10099E0043DE20D2AFD2ADE5BC547F4480F5BC43DC
:0309AE00BC402228
:1008E100E5096046E4F509FC7D6612088C8F08C2B3
:1008F10092C293C294C295C296E508C39401400284
:10090100D292E508C394044002D293E508C3940748
:100911004002D294E508C3940A4002D295E508C387
:0B092100940A4003D38001C392962289
:10092C001200001209B112098EE50B450A600AE5A6
:10093C000BB4FF12E50AB4FF0D53BC7FE5BC547F2A
:10094C004480F5BC8007AF0BAE0A1208E17F647ED1
:06095C000012000080D330
:03000000020800F3
:0C080000787FE4F6D8FD75810B020847F4
:10080C0002092CE493A3F8E493A34003F68001F2CD
:10081C0008DFF48029E493A3F85407240CC8C333ED
:10082C00C4540F4420C8834004F456800146F6DFBC
:10083C00E4800B01020408102040809009C8E47E7B
:10084C00019360BCA3FF543F30E509541FFEE493B1
:10085C00A360010ECF54C025E060A840B8E493A378
:10086C00FAE493A3F8E493A3C8C582C8CAC583CAA3
:10087C00F0A3C8C582C8CAC583CADFE9DEE780BE5B
:0109CE000028
:10088C00BC000BBE0029EF8DF084FFADF022E4CC50
:10089C00F875F008EF2FFFEE33FEEC33FCEE9DEC19
:1008AC00984005FCEE9DFE0FD5F0E9E4CEFD22ED5F
:1008BC00F8F5F0EE8420D21CFEADF075F008EF2FA9
:1008CC00FFED33FD4007985006D5F0F222C398FD9A
:0508DC000FD5F0EA2237
:00000001FF
